{
  "_format": "hh3-artifact-1",
  "contractName": "taskchain",
  "sourceName": "contracts/taskchain.sol",
  "abi": [
    {
      "anonymous": false,
      "inputs": [
        {
          "indexed": true,
          "internalType": "uint256",
          "name": "taskId",
          "type": "uint256"
        },
        {
          "indexed": false,
          "internalType": "bytes32",
          "name": "receiptHash",
          "type": "bytes32"
        },
        {
          "indexed": false,
          "internalType": "string",
          "name": "ipfsCid",
          "type": "string"
        }
      ],
      "name": "ReceiptAnchored",
      "type": "event"
    },
    {
      "anonymous": false,
      "inputs": [
        {
          "indexed": true,
          "internalType": "uint256",
          "name": "taskId",
          "type": "uint256"
        },
        {
          "indexed": true,
          "internalType": "address",
          "name": "executor",
          "type": "address"
        },
        {
          "indexed": false,
          "internalType": "enum taskchain.CommitmentLevel",
          "name": "commitment",
          "type": "uint8"
        }
      ],
      "name": "TaskClaimed",
      "type": "event"
    },
    {
      "anonymous": false,
      "inputs": [
        {
          "indexed": true,
          "internalType": "uint256",
          "name": "taskId",
          "type": "uint256"
        },
        {
          "indexed": true,
          "internalType": "address",
          "name": "executor",
          "type": "address"
        },
        {
          "indexed": true,
          "internalType": "address",
          "name": "creator",
          "type": "address"
        }
      ],
      "name": "TaskCompleted",
      "type": "event"
    },
    {
      "anonymous": false,
      "inputs": [
        {
          "indexed": true,
          "internalType": "uint256",
          "name": "taskId",
          "type": "uint256"
        },
        {
          "indexed": true,
          "internalType": "address",
          "name": "creator",
          "type": "address"
        },
        {
          "indexed": false,
          "internalType": "string",
          "name": "category",
          "type": "string"
        },
        {
          "indexed": false,
          "internalType": "uint8",
          "name": "priority",
          "type": "uint8"
        }
      ],
      "name": "TaskCreated",
      "type": "event"
    },
    {
      "anonymous": false,
      "inputs": [
        {
          "indexed": true,
          "internalType": "uint256",
          "name": "taskId",
          "type": "uint256"
        },
        {
          "indexed": true,
          "internalType": "address",
          "name": "recipient",
          "type": "address"
        },
        {
          "indexed": false,
          "internalType": "string",
          "name": "message",
          "type": "string"
        }
      ],
      "name": "TaskNotification",
      "type": "event"
    },
    {
      "inputs": [
        {
          "internalType": "uint256",
          "name": "taskId",
          "type": "uint256"
        },
        {
          "internalType": "enum taskchain.CommitmentLevel",
          "name": "commitment",
          "type": "uint8"
        }
      ],
      "name": "claimTask",
      "outputs": [],
      "stateMutability": "nonpayable",
      "type": "function"
    },
    {
      "inputs": [
        {
          "internalType": "uint256",
          "name": "taskId",
          "type": "uint256"
        },
        {
          "internalType": "bytes32",
          "name": "receiptHash",
          "type": "bytes32"
        },
        {
          "internalType": "string",
          "name": "ipfsCid",
          "type": "string"
        }
      ],
      "name": "completeTask",
      "outputs": [],
      "stateMutability": "nonpayable",
      "type": "function"
    },
    {
      "inputs": [
        {
          "internalType": "bytes32",
          "name": "metadataHash",
          "type": "bytes32"
        },
        {
          "internalType": "string",
          "name": "category",
          "type": "string"
        },
        {
          "internalType": "uint256",
          "name": "deadline",
          "type": "uint256"
        },
        {
          "internalType": "uint256",
          "name": "gracePeriod",
          "type": "uint256"
        },
        {
          "internalType": "uint8",
          "name": "priority",
          "type": "uint8"
        }
      ],
      "name": "createTask",
      "outputs": [
        {
          "internalType": "uint256",
          "name": "",
          "type": "uint256"
        }
      ],
      "stateMutability": "nonpayable",
      "type": "function"
    },
    {
      "inputs": [
        {
          "internalType": "uint256",
          "name": "taskId",
          "type": "uint256"
        }
      ],
      "name": "getTask",
      "outputs": [
        {
          "components": [
            {
              "internalType": "uint256",
              "name": "id",
              "type": "uint256"
            },
            {
              "internalType": "address",
              "name": "creator",
              "type": "address"
            },
            {
              "internalType": "address",
              "name": "executor",
              "type": "address"
            },
            {
              "internalType": "bytes32",
              "name": "metadataHash",
              "type": "bytes32"
            },
            {
              "internalType": "string",
              "name": "category",
              "type": "string"
            },
            {
              "internalType": "uint256",
              "name": "deadline",
              "type": "uint256"
            },
            {
              "internalType": "uint256",
              "name": "gracePeriod",
              "type": "uint256"
            },
            {
              "internalType": "uint8",
              "name": "priority",
              "type": "uint8"
            },
            {
              "internalType": "enum taskchain.CommitmentLevel",
              "name": "commitment",
              "type": "uint8"
            },
            {
              "internalType": "enum taskchain.TaskStatus",
              "name": "status",
              "type": "uint8"
            },
            {
              "internalType": "uint256",
              "name": "claimedAt",
              "type": "uint256"
            },
            {
              "internalType": "uint256",
              "name": "completedAt",
              "type": "uint256"
            },
            {
              "internalType": "bytes32",
              "name": "receiptHash",
              "type": "bytes32"
            },
            {
              "internalType": "string",
              "name": "ipfsCid",
              "type": "string"
            }
          ],
          "internalType": "struct taskchain.Task",
          "name": "",
          "type": "tuple"
        }
      ],
      "stateMutability": "view",
      "type": "function"
    },
    {
      "inputs": [
        {
          "internalType": "address",
          "name": "user",
          "type": "address"
        }
      ],
      "name": "getUserTasks",
      "outputs": [
        {
          "internalType": "uint256[]",
          "name": "",
          "type": "uint256[]"
        }
      ],
      "stateMutability": "view",
      "type": "function"
    },
    {
      "inputs": [
        {
          "internalType": "uint256",
          "name": "",
          "type": "uint256"
        }
      ],
      "name": "tasks",
      "outputs": [
        {
          "internalType": "uint256",
          "name": "id",
          "type": "uint256"
        },
        {
          "internalType": "address",
          "name": "creator",
          "type": "address"
        },
        {
          "internalType": "address",
          "name": "executor",
          "type": "address"
        },
        {
          "internalType": "bytes32",
          "name": "metadataHash",
          "type": "bytes32"
        },
        {
          "internalType": "string",
          "name": "category",
          "type": "string"
        },
        {
          "internalType": "uint256",
          "name": "deadline",
          "type": "uint256"
        },
        {
          "internalType": "uint256",
          "name": "gracePeriod",
          "type": "uint256"
        },
        {
          "internalType": "uint8",
          "name": "priority",
          "type": "uint8"
        },
        {
          "internalType": "enum taskchain.CommitmentLevel",
          "name": "commitment",
          "type": "uint8"
        },
        {
          "internalType": "enum taskchain.TaskStatus",
          "name": "status",
          "type": "uint8"
        },
        {
          "internalType": "uint256",
          "name": "claimedAt",
          "type": "uint256"
        },
        {
          "internalType": "uint256",
          "name": "completedAt",
          "type": "uint256"
        },
        {
          "internalType": "bytes32",
          "name": "receiptHash",
          "type": "bytes32"
        },
        {
          "internalType": "string",
          "name": "ipfsCid",
          "type": "string"
        }
      ],
      "stateMutability": "view",
      "type": "function"
    },
    {
      "inputs": [],
      "name": "totalTasks",
      "outputs": [
        {
          "internalType": "uint256",
          "name": "",
          "type": "uint256"
        }
      ],
      "stateMutability": "view",
      "type": "function"
    },
    {
      "inputs": [
        {
          "internalType": "address",
          "name": "",
          "type": "address"
        },
        {
          "internalType": "uint256",
          "name": "",
          "type": "uint256"
        }
      ],
      "name": "userTasks",
      "outputs": [
        {
          "internalType": "uint256",
          "name": "",
          "type": "uint256"
        }
      ],
      "stateMutability": "view",
      "type": "function"
    },
    {
      "inputs": [
        {
          "internalType": "uint256",
          "name": "taskId",
          "type": "uint256"
        },
        {
          "internalType": "string",
          "name": "ipfsCid",
          "type": "string"
        }
      ],
      "name": "verifyTaskOffchain",
      "outputs": [
        {
          "internalType": "bool",
          "name": "",
          "type": "bool"
        }
      ],
      "stateMutability": "view",
      "type": "function"
    }
  ],
  "bytecode": "0x608080604052346100165761106d908161001b8239f35b5f80fdfe60806040526004361015610011575f80fd5b5f3560e01c80630ead6f3b14610a165780631d65e77e146107d95780635933107c1461067e57806366873a5514610627578063864ac217146103825780638d9776721461027157806395d57660146101c3578063ab9ee6971461009c5763d22c81e51461007c575f80fd5b34610098575f3660031901126100985760205f54604051908152f35b5f80fd5b34610098576040366003190112610098576024356004356003821015610098576100c85f548210610f55565b805f52600160205260405f206100dd82610f97565b60078101805460ff8160101c1660048110156101af5761017a57620100009060028401336bffffffffffffffffffffffff60a01b82541617905561ff008660081b169062ffff00191617179055600842910155335f5260026020526101458160405f20610f1c565b6101526040518093610d91565b7fde3a15c0c6e1f82abdafed74b14f25069b3804fa158dfe759317dc2ad1a64ed360203393a3005b60405162461bcd60e51b815260206004820152600d60248201526c2a30b9b5903737ba1037b832b760991b6044820152606490fd5b634e487b7160e01b5f52602160045260245ffd5b3461009857602080600319360112610098576001600160a01b036101e5610dab565b165f526002815260405f20604051908183825491828152019081925f52845f20905f5b8682821061025d57868661021e82880383610cd3565b60405192839281840190828552518091526040840192915f5b82811061024657505050500390f35b835185528695509381019392810192600101610237565b835485529093019260019283019201610208565b34610098576020366003190112610098576004355f52600160205260405f208054600160a01b6001900391826001820154169260028201541690600381015490600481016102be90610e22565b916005820154926006830154600784015490600885015492600986015494600a87015496600b016102ee90610e22565b986040519b8c9b8c5260208c015260408b015260608a01526101c08060808b0152890161031a91610d6c565b9560a089015260c088015260ff811660e088015261010087018160081c60ff169061034491610d91565b61012087019060101c60ff169061035a91610d9e565b6101408601526101608501526101808401528281036101a084015261037e91610d6c565b0390f35b346100985760a03660031901126100985767ffffffffffffffff602435818111610098576103b4903690600401610cf5565b6044356084359060ff821680920361009857428111156105ef575f54925f19948585146105db576001928386015f55855f5260209684885260405f20928784558584016bffffffffffffffffffffffff60a01b903382825416179055600285019081541690556004356003850155600484019185519182116105c7578896610446836104408654610dea565b86610ed9565b8a601f84116001146105385792805f969381600b97947f25669b93cba085719f868b4911199469a1d2595fa218b39f3e52c8f0744bee209b9a978a9461052d575b501b9260031b1c19161790555b60058201556064356006820155600781018762ffffff19825416179055826008820155826009820155016104c88154610dea565b601f811161050f575b5055335f52600286526104e78360405f20610f1c565b6104fc60405191604083526040830190610d6c565b93868201528033940390a3604051908152f35b81835288832061052791601f0160051c810190610ec3565b886104d1565b8b015193505f610487565b5f8581528c81209294939190601f198516908e5b8282106105af575050927f25669b93cba085719f868b4911199469a1d2595fa218b39f3e52c8f0744bee209998959285925f9996600b999610610597575b505050811b019055610494565b8a01519060f88460031b161c191690558d808061058a565b8b84015186558e9c509487019492830192018e61054c565b634e487b7160e01b5f52604160045260245ffd5b634e487b7160e01b5f52601160045260245ffd5b60405162461bcd60e51b815260206004820152601060248201526f496e76616c696420646561646c696e6560801b6044820152606490fd5b3461009857604036600319011261009857610640610dab565b6001600160a01b03165f908152600260205260409020805460243591908210156100985760209161067091610dc1565b90546040519160031b1c8152f35b346100985760403660031901126100985760043560243567ffffffffffffffff8111610098576106b2903690600401610cf5565b906106bf5f548210610f55565b5f52600160209181835260405f209160ff600784015460101c1660048110156101af5760021492836106f9575b5050506040519015158152f35b600b919293500190836040518092828201945f9181549161071983610dea565b928281169081156107b9575060011461077c575b505050610743925003601f198101835282610cd3565b519020906040516107708482816107638183019687815193849201610d4b565b8101038084520182610cd3565b519020148280806106ec565b5f908152858120929350915b8383106107a35750505091610743928201018692888061072d565b8054878401870152869450918501918101610788565b9250505061074394925060ff19168652801515028201018692888061072d565b346100985760203660031901126100985760043560606101a06040516107fe81610cb6565b5f81525f60208201525f60408201525f838201528260808201525f60a08201525f60c08201525f60e08201525f6101008201525f6101208201525f6101408201525f6101608201525f610180820152015261085b5f548210610f55565b5f52600160205260405f2060405161087281610cb6565b8154815260018201546001600160a01b0390811660208301526002830154166040820152600382015460608201526108ac60048301610e22565b6080820152600582015460a0820152600682015460c0820152600782015460ff811660e083015260ff8160081c169060038210156101af5760ff9161010084015260101c169160048310156101af57600b6109329161037e9461012085015260088101546101408501526009810154610160850152600a81015461018085015201610e22565b6101a0820152604051918291602083528051602084015260018060a01b03602082015116604084015260018060a01b036040820151166060840152606081015160808401526101a061099560808301516101c060a08701526101e0860190610d6c565b9160a081015160c086015260c081015160e086015260ff60e0820151166101008601526109cc610100820151610120870190610d91565b6109e0610120820151610140870190610d9e565b610140810151610160860152610160810151610180860152610180810151828601520151601f19848303016101c0850152610d6c565b346100985760603660031901126100985767ffffffffffffffff60443581811161009857610a48903690600401610cf5565b90610a575f5460043510610f55565b6004355f52600160205260405f2090610a71600435610f97565b60078201805460ff8160101c1660048110156101af57600103610c7e5760028401546001600160a01b03163303610c4a5762ff0000191662020000179055426009830155602435600a83015582519081116105c757610ae081610ad7600b850154610dea565b600b8501610ed9565b806020601f8211600114610be1575f91610bd6575b508160011b915f199060031b1c191617600b8201555b6001808060a01b0391015416907f150a12cc126268980633e4627fdbf68a0c3f23f9e3f3e0dcbe590cbd4923584e60405183336004357f71df29d45998a549c1f24c01fb77e4eb23d0655460af8d435c59de2d8f572d965f80a460243581526040602082015280610b83600435946040830190610d6c565b0390a260405160208152600f60208201526e5461736b20636f6d706c657465642160881b60408201527ff512a1c9d0dc3106476c45e6c35a5a41b74a9c7b81a3af8235a0a57e6717acea606060043592a3005b905083015184610af5565b600b84015f908152602081209250601f198416905b818110610c3257509083600194939210610c1a575b5050811b01600b820155610b0b565b8501515f1960f88460031b161c191690558480610c0b565b9192602060018192868a015181550194019201610bf6565b60405162461bcd60e51b815260206004820152600c60248201526b2737ba1032bc32b1baba37b960a11b6044820152606490fd5b60405162461bcd60e51b815260206004820152601060248201526f15185cdac81b9bdd0818db185a5b595960821b6044820152606490fd5b6101c0810190811067ffffffffffffffff8211176105c757604052565b90601f8019910116810190811067ffffffffffffffff8211176105c757604052565b81601f820112156100985780359067ffffffffffffffff82116105c75760405192610d2a601f8401601f191660200185610cd3565b8284526020838301011161009857815f926020809301838601378301015290565b5f5b838110610d5c5750505f910152565b8181015183820152602001610d4d565b90602091610d8581518092818552858086019101610d4b565b601f01601f1916010190565b9060038210156101af5752565b9060048210156101af5752565b600435906001600160a01b038216820361009857565b8054821015610dd6575f5260205f2001905f90565b634e487b7160e01b5f52603260045260245ffd5b90600182811c92168015610e18575b6020831014610e0457565b634e487b7160e01b5f52602260045260245ffd5b91607f1691610df9565b9060405191825f825492610e3584610dea565b9081845260019485811690815f14610ea05750600114610e60575b5050610e5e92500383610cd3565b565b909391505f52602090815f20935f915b818310610e88575050610e5e93508201015f80610e50565b85548884018501529485019487945091830191610e70565b915050610e5e94506020925060ff191682840152151560051b8201015f80610e50565b818110610ece575050565b5f8155600101610ec3565b9190601f8111610ee857505050565b610e5e925f5260205f20906020601f840160051c83019310610f12575b601f0160051c0190610ec3565b9091508190610f05565b8054680100000000000000008110156105c757610f3e91600182018155610dc1565b819291549060031b91821b915f19901b1916179055565b15610f5c57565b60405162461bcd60e51b815260206004820152601360248201527215185cdac8191bd95cc81b9bdd08195e1a5cdd606a1b6044820152606490fd5b5f9081526001602052604081206007810180549260ff8460101c166004811015611023576001149081610ff2575b50610fcf57505050565b62ff000019909216620300001790915560020180546001600160a01b0319169055565b6005840154600685015481019250821061100f575042115f610fc5565b634e487b7160e01b81526011600452602490fd5b634e487b7160e01b82526021600452602482fdfea26469706673582212204b44991c90c1435fd2ad212b62de8e791dc302df6efb04e47d3715f57cc4ac7264736f6c63430008140033",
  "linkReferences": {},
  "deployedLinkReferences": {},
  "immutableReferences": {},
  "inputSourceName": "project/contracts/taskchain.sol",
  "buildInfoId": "solc-0_8_20-6adf98a952e23df0ce50fbc0bede40bf74197e4e"
}